{"abi":[{"type":"function","name":"coin","inputs":[{"name":"","type":"tuple","internalType":"struct Cosmos.Coin","components":[{"name":"amount","type":"uint256","internalType":"uint256"},{"name":"denom","type":"string","internalType":"string"}]}],"outputs":[],"stateMutability":"pure"}],"bytecode":{"object":"0x6080604052348015600e575f5ffd5b5060e180601a5f395ff3fe6080604052348015600e575f5ffd5b50600436106026575f3560e01c80632ff6e5df14602a575b5f5ffd5b60406004803603810190603c9190606c565b6042565b005b50565b5f5ffd5b5f5ffd5b5f5ffd5b5f604082840312156063576062604d565b5b81905092915050565b5f60208284031215607e57607d6045565b5b5f82013567ffffffffffffffff81111560985760976049565b5b60a2848285016051565b9150509291505056fea26469706673582212203827be5eae2aaa9b9eb004132c64dd47d5621e18f3b00257140213b3b93348a564736f6c634300081e0033","linkReferences":{}},"methodIdentifiers":{"coin((uint256,string))":"2ff6e5df"},"id":0}