{"abi":[{"type":"constructor","inputs":[],"stateMutability":"payable"},{"type":"function","name":"cancelSpotOrder","inputs":[{"name":"marketID","type":"string","internalType":"string"},{"name":"subaccountID","type":"string","internalType":"string"},{"name":"orderHash","type":"string","internalType":"string"},{"name":"cid","type":"string","internalType":"string"}],"outputs":[{"name":"success","type":"bool","internalType":"bool"}],"stateMutability":"nonpayable"},{"type":"function","name":"createDerivativeLimitOrder","inputs":[{"name":"order","type":"tuple","internalType":"struct IExchangeModule.DerivativeOrder","components":[{"name":"marketID","type":"string","internalType":"string"},{"name":"subaccountID","type":"string","internalType":"string"},{"name":"feeRecipient","type":"string","internalType":"string"},{"name":"price","type":"uint256","internalType":"uint256"},{"name":"quantity","type":"uint256","internalType":"uint256"},{"name":"cid","type":"string","internalType":"string"},{"name":"orderType","type":"string","internalType":"string"},{"name":"margin","type":"uint256","internalType":"uint256"},{"name":"triggerPrice","type":"uint256","internalType":"uint256"}]}],"outputs":[{"name":"response","type":"tuple","internalType":"struct IExchangeModule.CreateDerivativeLimitOrderResponse","components":[{"name":"orderHash","type":"string","internalType":"string"},{"name":"cid","type":"string","internalType":"string"}]}],"stateMutability":"nonpayable"},{"type":"function","name":"createSpotLimitOrder","inputs":[{"name":"order","type":"tuple","internalType":"struct IExchangeModule.SpotOrder","components":[{"name":"marketID","type":"string","internalType":"string"},{"name":"subaccountID","type":"string","internalType":"string"},{"name":"feeRecipient","type":"string","internalType":"string"},{"name":"price","type":"uint256","internalType":"uint256"},{"name":"quantity","type":"uint256","internalType":"uint256"},{"name":"cid","type":"string","internalType":"string"},{"name":"orderType","type":"string","internalType":"string"},{"name":"triggerPrice","type":"uint256","internalType":"uint256"}]}],"outputs":[{"name":"response","type":"tuple","internalType":"struct IExchangeModule.CreateSpotLimitOrderResponse","components":[{"name":"orderHash","type":"string","internalType":"string"},{"name":"cid","type":"string","internalType":"string"}]}],"stateMutability":"nonpayable"},{"type":"function","name":"deposit","inputs":[{"name":"subaccountID","type":"string","internalType":"string"},{"name":"denom","type":"string","internalType":"string"},{"name":"amount","type":"uint256","internalType":"uint256"}],"outputs":[{"name":"","type":"bool","internalType":"bool"}],"stateMutability":"nonpayable"},{"type":"function","name":"subaccountPositions","inputs":[{"name":"subaccountID","type":"string","internalType":"string"}],"outputs":[{"name":"positions","type":"tuple[]","internalType":"struct IExchangeModule.DerivativePosition[]","components":[{"name":"subaccountID","type":"string","internalType":"string"},{"name":"marketID","type":"string","internalType":"string"},{"name":"isLong","type":"bool","internalType":"bool"},{"name":"quantity","type":"uint256","internalType":"uint256"},{"name":"entryPrice","type":"uint256","internalType":"uint256"},{"name":"margin","type":"uint256","internalType":"uint256"},{"name":"cumulativeFundingEntry","type":"uint256","internalType":"uint256"}]}],"stateMutability":"view"},{"type":"function","name":"withdraw","inputs":[{"name":"subaccountID","type":"string","internalType":"string"},{"name":"denom","type":"string","internalType":"string"},{"name":"amount","type":"uint256","internalType":"uint256"}],"outputs":[{"name":"","type":"bool","internalType":"bool"}],"stateMutability":"nonpayable"}],"bytecode":{"object":"0x608060405260655f5f6101000a81548173ffffffffffffffffffffffffffffffffffffffff021916908373ffffffffffffffffffffffffffffffffffffffff160217905550612004806100515f395ff3fe608060405234801561000f575f5ffd5b5060043610610060575f3560e01c8063222ac055146100645780634b2187e21461009457806351755117146100c45780639bb15b3c146100f4578063ba73b81814610124578063e545676114610154575b5f5ffd5b61007e60048036038101906100799190610a39565b610184565b60405161008b9190610ae4565b60405180910390f35b6100ae60048036038101906100a99190610b20565b6102f4565b6040516100bb9190610c18565b60405180910390f35b6100de60048036038101906100d99190610c57565b610462565b6040516100eb9190610cdf565b60405180910390f35b61010e60048036038101906101099190610cff565b6105d0565b60405161011b9190610ec3565b60405180910390f35b61013e60048036038101906101399190610a39565b610677565b60405161014b9190610ae4565b60405180910390f35b61016e60048036038101906101699190610ee3565b6107e7565b60405161017b9190610ae4565b60405180910390f35b5f5f5f9054906101000a900473ffffffffffffffffffffffffffffffffffffffff1673ffffffffffffffffffffffffffffffffffffffff1663e441dec93088888888886040518763ffffffff1660e01b81526004016101e89695949392919061105f565b6020604051808303815f875af192505050801561022357506040513d601f19601f8201168201806040525081019061022091906110de565b60015b6102e75761022f611115565b806308c379a0036102aa5750610243611192565b8061024e57506102ac565b8060405160200161025f91906112a5565b6040516020818303038152906040526040517f08c379a00000000000000000000000000000000000000000000000000000000081526004016102a191906112fe565b60405180910390fd5b505b6040517f08c379a00000000000000000000000000000000000000000000000000000000081526004016102de90611368565b60405180910390fd5b8091505095945050505050565b6102fc610960565b5f5f9054906101000a900473ffffffffffffffffffffffffffffffffffffffff1673ffffffffffffffffffffffffffffffffffffffff166320c6983730846040518363ffffffff1660e01b8152600401610357929190611566565b5f604051808303815f875af192505050801561039557506040513d5f823e3d601f19601f8201168201806040525081019061039291906116dd565b60015b610459576103a1611115565b806308c379a00361041c57506103b5611192565b806103c0575061041e565b806040516020016103d19190611794565b6040516020818303038152906040526040517f08c379a000000000000000000000000000000000000000000000000000000000815260040161041391906112fe565b60405180910390fd5b505b6040517f08c379a000000000000000000000000000000000000000000000000000000000815260040161045090611825565b60405180910390fd5b80915050919050565b61046a61097a565b5f5f9054906101000a900473ffffffffffffffffffffffffffffffffffffffff1673ffffffffffffffffffffffffffffffffffffffff1663f642485e30846040518363ffffffff1660e01b81526004016104c5929190611956565b5f604051808303815f875af192505050801561050357506040513d5f823e3d601f19601f820116820180604052508101906105009190611a09565b60015b6105c75761050f611115565b806308c379a00361058a5750610523611192565b8061052e575061058c565b8060405160200161053f9190611a9a565b6040516020818303038152906040526040517f08c379a000000000000000000000000000000000000000000000000000000000815260040161058191906112fe565b60405180910390fd5b505b6040517f08c379a00000000000000000000000000000000000000000000000000000000081526004016105be90611b2b565b60405180910390fd5b80915050919050565b60605f5f9054906101000a900473ffffffffffffffffffffffffffffffffffffffff1673ffffffffffffffffffffffffffffffffffffffff16639bb15b3c84846040518363ffffffff1660e01b815260040161062d929190611b49565b5f60405180830381865afa158015610647573d5f5f3e3d5ffd5b505050506040513d5f823e3d601f19601f8201168201806040525081019061066f9190611d46565b905092915050565b5f5f5f9054906101000a900473ffffffffffffffffffffffffffffffffffffffff1673ffffffffffffffffffffffffffffffffffffffff1663eb28c2053088888888886040518763ffffffff1660e01b81526004016106db9695949392919061105f565b6020604051808303815f875af192505050801561071657506040513d601f19601f8201168201806040525081019061071391906110de565b60015b6107da57610722611115565b806308c379a00361079d5750610736611192565b80610741575061079f565b806040516020016107529190611dd7565b6040516020818303038152906040526040517f08c379a000000000000000000000000000000000000000000000000000000000815260040161079491906112fe565b60405180910390fd5b505b6040517f08c379a00000000000000000000000000000000000000000000000000000000081526004016107d190611e42565b60405180910390fd5b8091505095945050505050565b5f5f5f9054906101000a900473ffffffffffffffffffffffffffffffffffffffff1673ffffffffffffffffffffffffffffffffffffffff166325bf6b92308b8b8b8b8b8b8b8b6040518a63ffffffff1660e01b815260040161085199989796959493929190611e60565b6020604051808303815f875af192505050801561088c57506040513d601f19601f8201168201806040525081019061088991906110de565b60015b61095057610898611115565b806308c379a00361091357506108ac611192565b806108b75750610915565b806040516020016108c89190611f1f565b6040516020818303038152906040526040517f08c379a000000000000000000000000000000000000000000000000000000000815260040161090a91906112fe565b60405180910390fd5b505b6040517f08c379a000000000000000000000000000000000000000000000000000000000815260040161094790611fb0565b60405180910390fd5b8091505098975050505050505050565b604051806040016040528060608152602001606081525090565b604051806040016040528060608152602001606081525090565b5f604051905090565b5f5ffd5b5f5ffd5b5f5ffd5b5f5ffd5b5f5ffd5b5f5f83601f8401126109c6576109c56109a5565b5b8235905067ffffffffffffffff8111156109e3576109e26109a9565b5b6020830191508360018202830111156109ff576109fe6109ad565b5b9250929050565b5f819050919050565b610a1881610a06565b8114610a22575f5ffd5b50565b5f81359050610a3381610a0f565b92915050565b5f5f5f5f5f60608688031215610a5257610a5161099d565b5b5f86013567ffffffffffffffff811115610a6f57610a6e6109a1565b5b610a7b888289016109b1565b9550955050602086013567ffffffffffffffff811115610a9e57610a9d6109a1565b5b610aaa888289016109b1565b93509350506040610abd88828901610a25565b9150509295509295909350565b5f8115159050919050565b610ade81610aca565b82525050565b5f602082019050610af75f830184610ad5565b92915050565b5f5ffd5b5f6101208284031215610b1757610b16610afd565b5b81905092915050565b5f60208284031215610b3557610b3461099d565b5b5f82013567ffffffffffffffff811115610b5257610b516109a1565b5b610b5e84828501610b01565b91505092915050565b5f81519050919050565b5f82825260208201905092915050565b8281835e5f83830152505050565b5f601f19601f8301169050919050565b5f610ba982610b67565b610bb38185610b71565b9350610bc3818560208601610b81565b610bcc81610b8f565b840191505092915050565b5f604083015f8301518482035f860152610bf18282610b9f565b91505060208301518482036020860152610c0b8282610b9f565b9150508091505092915050565b5f6020820190508181035f830152610c308184610bd7565b905092915050565b5f6101008284031215610c4e57610c4d610afd565b5b81905092915050565b5f60208284031215610c6c57610c6b61099d565b5b5f82013567ffffffffffffffff811115610c8957610c886109a1565b5b610c9584828501610c38565b91505092915050565b5f604083015f8301518482035f860152610cb88282610b9f565b91505060208301518482036020860152610cd28282610b9f565b9150508091505092915050565b5f6020820190508181035f830152610cf78184610c9e565b905092915050565b5f5f60208385031215610d1557610d1461099d565b5b5f83013567ffffffffffffffff811115610d3257610d316109a1565b5b610d3e858286016109b1565b92509250509250929050565b5f81519050919050565b5f82825260208201905092915050565b5f819050602082019050919050565b610d7c81610aca565b82525050565b610d8b81610a06565b82525050565b5f60e083015f8301518482035f860152610dab8282610b9f565b91505060208301518482036020860152610dc58282610b9f565b9150506040830151610dda6040860182610d73565b506060830151610ded6060860182610d82565b506080830151610e006080860182610d82565b5060a0830151610e1360a0860182610d82565b5060c0830151610e2660c0860182610d82565b508091505092915050565b5f610e3c8383610d91565b905092915050565b5f602082019050919050565b5f610e5a82610d4a565b610e648185610d54565b935083602082028501610e7685610d64565b805f5b85811015610eb15784840389528151610e928582610e31565b9450610e9d83610e44565b925060208a01995050600181019050610e79565b50829750879550505050505092915050565b5f6020820190508181035f830152610edb8184610e50565b905092915050565b5f5f5f5f5f5f5f5f6080898b031215610eff57610efe61099d565b5b5f89013567ffffffffffffffff811115610f1c57610f1b6109a1565b5b610f288b828c016109b1565b9850985050602089013567ffffffffffffffff811115610f4b57610f4a6109a1565b5b610f578b828c016109b1565b9650965050604089013567ffffffffffffffff811115610f7a57610f796109a1565b5b610f868b828c016109b1565b9450945050606089013567ffffffffffffffff811115610fa957610fa86109a1565b5b610fb58b828c016109b1565b92509250509295985092959890939650565b5f73ffffffffffffffffffffffffffffffffffffffff82169050919050565b5f610ff082610fc7565b9050919050565b61100081610fe6565b82525050565b5f82825260208201905092915050565b828183375f83830152505050565b5f61102f8385611006565b935061103c838584611016565b61104583610b8f565b840190509392505050565b61105981610a06565b82525050565b5f6080820190506110725f830189610ff7565b8181036020830152611085818789611024565b9050818103604083015261109a818587611024565b90506110a96060830184611050565b979650505050505050565b6110bd81610aca565b81146110c7575f5ffd5b50565b5f815190506110d8816110b4565b92915050565b5f602082840312156110f3576110f261099d565b5b5f611100848285016110ca565b91505092915050565b5f8160e01c9050919050565b5f60033d11156111315760045f5f3e61112e5f51611109565b90505b90565b7f4e487b71000000000000000000000000000000000000000000000000000000005f52604160045260245ffd5b61116a82610b8f565b810181811067ffffffffffffffff8211171561118957611188611134565b5b80604052505050565b5f60443d1061121e576111a3610994565b60043d036004823e80513d602482011167ffffffffffffffff821117156111cb57505061121e565b808201805167ffffffffffffffff8111156111e9575050505061121e565b80602083010160043d03850181111561120657505050505061121e565b61121582602001850186611161565b82955050505050505b90565b5f81905092915050565b7f4465706f736974206572726f723a2000000000000000000000000000000000005f82015250565b5f61125f600f83611221565b915061126a8261122b565b600f82019050919050565b5f61127f82610b67565b6112898185611221565b9350611299818560208601610b81565b80840191505092915050565b5f6112af82611253565b91506112bb8284611275565b915081905092915050565b5f6112d082610b67565b6112da8185611006565b93506112ea818560208601610b81565b6112f381610b8f565b840191505092915050565b5f6020820190508181035f83015261131681846112c6565b905092915050565b7f556e6b6e6f776e206572726f7220647572696e67206465706f736974000000005f82015250565b5f611352601c83611006565b915061135d8261131e565b602082019050919050565b5f6020820190508181035f83015261137f81611346565b9050919050565b5f5ffd5b5f5ffd5b5f5ffd5b5f5f833560016020038436030381126113ae576113ad61138e565b5b83810192508235915060208301925067ffffffffffffffff8211156113d6576113d5611386565b5b6001820236038313156113ec576113eb61138a565b5b509250929050565b5f6113ff8385610b71565b935061140c838584611016565b61141583610b8f565b840190509392505050565b5f61142e6020840184610a25565b905092915050565b5f61012083016114485f840184611392565b8583035f87015261145a8382846113f4565b9250505061146b6020840184611392565b858303602087015261147e8382846113f4565b9250505061148f6040840184611392565b85830360408701526114a28382846113f4565b925050506114b36060840184611420565b6114c06060860182610d82565b506114ce6080840184611420565b6114db6080860182610d82565b506114e960a0840184611392565b85830360a08701526114fc8382846113f4565b9250505061150d60c0840184611392565b85830360c08701526115208382846113f4565b9250505061153160e0840184611420565b61153e60e0860182610d82565b5061154d610100840184611420565b61155b610100860182610d82565b508091505092915050565b5f6040820190506115795f830185610ff7565b818103602083015261158b8184611436565b90509392505050565b5f5ffd5b5f6115a1610994565b90506115ad8282611161565b919050565b5f5ffd5b5f5ffd5b5f67ffffffffffffffff8211156115d4576115d3611134565b5b6115dd82610b8f565b9050602081019050919050565b5f6115fc6115f7846115ba565b611598565b905082815260208101848484011115611618576116176115b6565b5b611623848285610b81565b509392505050565b5f82601f83011261163f5761163e6109a5565b5b815161164f8482602086016115ea565b91505092915050565b5f6040828403121561166d5761166c611594565b5b6116776040611598565b90505f82015167ffffffffffffffff811115611696576116956115b2565b5b6116a28482850161162b565b5f83015250602082015167ffffffffffffffff8111156116c5576116c46115b2565b5b6116d18482850161162b565b60208301525092915050565b5f602082840312156116f2576116f161099d565b5b5f82015167ffffffffffffffff81111561170f5761170e6109a1565b5b61171b84828501611658565b91505092915050565b7f437265617465446572697661746976654c696d69744f72646572206572726f725f8201527f3a20000000000000000000000000000000000000000000000000000000000000602082015250565b5f61177e602283611221565b915061178982611724565b602282019050919050565b5f61179e82611772565b91506117aa8284611275565b915081905092915050565b7f556e6b6e6f776e206572726f7220647572696e672063726561746544657269765f8201527f61746976654c696d69744f726465720000000000000000000000000000000000602082015250565b5f61180f602f83611006565b915061181a826117b5565b604082019050919050565b5f6020820190508181035f83015261183c81611803565b9050919050565b5f61010083016118555f840184611392565b8583035f8701526118678382846113f4565b925050506118786020840184611392565b858303602087015261188b8382846113f4565b9250505061189c6040840184611392565b85830360408701526118af8382846113f4565b925050506118c06060840184611420565b6118cd6060860182610d82565b506118db6080840184611420565b6118e86080860182610d82565b506118f660a0840184611392565b85830360a08701526119098382846113f4565b9250505061191a60c0840184611392565b85830360c087015261192d8382846113f4565b9250505061193e60e0840184611420565b61194b60e0860182610d82565b508091505092915050565b5f6040820190506119695f830185610ff7565b818103602083015261197b8184611843565b90509392505050565b5f6040828403121561199957611998611594565b5b6119a36040611598565b90505f82015167ffffffffffffffff8111156119c2576119c16115b2565b5b6119ce8482850161162b565b5f83015250602082015167ffffffffffffffff8111156119f1576119f06115b2565b5b6119fd8482850161162b565b60208301525092915050565b5f60208284031215611a1e57611a1d61099d565b5b5f82015167ffffffffffffffff811115611a3b57611a3a6109a1565b5b611a4784828501611984565b91505092915050565b7f43726561746553706f744c696d69744f72646572206572726f723a20000000005f82015250565b5f611a84601c83611221565b9150611a8f82611a50565b601c82019050919050565b5f611aa482611a78565b9150611ab08284611275565b915081905092915050565b7f556e6b6e6f776e206572726f7220647572696e672063726561746553706f744c5f8201527f696d69744f726465720000000000000000000000000000000000000000000000602082015250565b5f611b15602983611006565b9150611b2082611abb565b604082019050919050565b5f6020820190508181035f830152611b4281611b09565b9050919050565b5f6020820190508181035f830152611b62818486611024565b90509392505050565b5f67ffffffffffffffff821115611b8557611b84611134565b5b602082029050602081019050919050565b5f81519050611ba481610a0f565b92915050565b5f60e08284031215611bbf57611bbe611594565b5b611bc960e0611598565b90505f82015167ffffffffffffffff811115611be857611be76115b2565b5b611bf48482850161162b565b5f83015250602082015167ffffffffffffffff811115611c1757611c166115b2565b5b611c238482850161162b565b6020830152506040611c37848285016110ca565b6040830152506060611c4b84828501611b96565b6060830152506080611c5f84828501611b96565b60808301525060a0611c7384828501611b96565b60a08301525060c0611c8784828501611b96565b60c08301525092915050565b5f611ca5611ca084611b6b565b611598565b90508083825260208201905060208402830185811115611cc857611cc76109ad565b5b835b81811015611d0f57805167ffffffffffffffff811115611ced57611cec6109a5565b5b808601611cfa8982611baa565b85526020850194505050602081019050611cca565b5050509392505050565b5f82601f830112611d2d57611d2c6109a5565b5b8151611d3d848260208601611c93565b91505092915050565b5f60208284031215611d5b57611d5a61099d565b5b5f82015167ffffffffffffffff811115611d7857611d776109a1565b5b611d8484828501611d19565b91505092915050565b7f5769746864726177206572726f723a20000000000000000000000000000000005f82015250565b5f611dc1601083611221565b9150611dcc82611d8d565b601082019050919050565b5f611de182611db5565b9150611ded8284611275565b915081905092915050565b7f556e6b6e6f776e206572726f7220647572696e672077697468647261770000005f82015250565b5f611e2c601d83611006565b9150611e3782611df8565b602082019050919050565b5f6020820190508181035f830152611e5981611e20565b9050919050565b5f60a082019050611e735f83018c610ff7565b8181036020830152611e86818a8c611024565b90508181036040830152611e9b81888a611024565b90508181036060830152611eb0818688611024565b90508181036080830152611ec5818486611024565b90509a9950505050505050505050565b7f43616e63656c53706f744f72646572206572726f723a200000000000000000005f82015250565b5f611f09601783611221565b9150611f1482611ed5565b601782019050919050565b5f611f2982611efd565b9150611f358284611275565b915081905092915050565b7f556e6b6e6f776e206572726f7220647572696e672063616e63656c53706f744f5f8201527f7264657200000000000000000000000000000000000000000000000000000000602082015250565b5f611f9a602483611006565b9150611fa582611f40565b604082019050919050565b5f6020820190508181035f830152611fc781611f8e565b905091905056fea26469706673582212204974c87b1c49e2b2eb548aa59a1ec9348d225704f5198307b18c72983bef0c7a64736f6c634300081e0033","linkReferences":{}},"methodIdentifiers":{"cancelSpotOrder(string,string,string,string)":"e5456761","createDerivativeLimitOrder((string,string,string,uint256,uint256,string,string,uint256,uint256))":"4b2187e2","createSpotLimitOrder((string,string,string,uint256,uint256,string,string,uint256))":"51755117","deposit(string,string,uint256)":"222ac055","subaccountPositions(string)":"9bb15b3c","withdraw(string,string,uint256)":"ba73b818"},"id":2}