{"abi":[{"type":"function","name":"MsgType_BatchCancelDerivativeOrders","inputs":[],"outputs":[{"name":"","type":"uint8","internalType":"ExchangeTypes.MsgType"}],"stateMutability":"view"},{"type":"function","name":"MsgType_BatchCancelSpotOrders","inputs":[],"outputs":[{"name":"","type":"uint8","internalType":"ExchangeTypes.MsgType"}],"stateMutability":"view"},{"type":"function","name":"MsgType_BatchCreateDerivativeLimitOrders","inputs":[],"outputs":[{"name":"","type":"uint8","internalType":"ExchangeTypes.MsgType"}],"stateMutability":"view"},{"type":"function","name":"MsgType_BatchCreateSpotLimitOrders","inputs":[],"outputs":[{"name":"","type":"uint8","internalType":"ExchangeTypes.MsgType"}],"stateMutability":"view"},{"type":"function","name":"MsgType_BatchUpdateOrders","inputs":[],"outputs":[{"name":"","type":"uint8","internalType":"ExchangeTypes.MsgType"}],"stateMutability":"view"},{"type":"function","name":"MsgType_CancelDerivativeOrder","inputs":[],"outputs":[{"name":"","type":"uint8","internalType":"ExchangeTypes.MsgType"}],"stateMutability":"view"},{"type":"function","name":"MsgType_CancelSpotOrder","inputs":[],"outputs":[{"name":"","type":"uint8","internalType":"ExchangeTypes.MsgType"}],"stateMutability":"view"},{"type":"function","name":"MsgType_CreateDerivativeLimitOrder","inputs":[],"outputs":[{"name":"","type":"uint8","internalType":"ExchangeTypes.MsgType"}],"stateMutability":"view"},{"type":"function","name":"MsgType_CreateDerivativeMarketOrder","inputs":[],"outputs":[{"name":"","type":"uint8","internalType":"ExchangeTypes.MsgType"}],"stateMutability":"view"},{"type":"function","name":"MsgType_CreateSpotLimitOrder","inputs":[],"outputs":[{"name":"","type":"uint8","internalType":"ExchangeTypes.MsgType"}],"stateMutability":"view"},{"type":"function","name":"MsgType_CreateSpotMarketOrder","inputs":[],"outputs":[{"name":"","type":"uint8","internalType":"ExchangeTypes.MsgType"}],"stateMutability":"view"},{"type":"function","name":"MsgType_DecreasePositionMargin","inputs":[],"outputs":[{"name":"","type":"uint8","internalType":"ExchangeTypes.MsgType"}],"stateMutability":"view"},{"type":"function","name":"MsgType_Deposit","inputs":[],"outputs":[{"name":"","type":"uint8","internalType":"ExchangeTypes.MsgType"}],"stateMutability":"view"},{"type":"function","name":"MsgType_ExternalTransfer","inputs":[],"outputs":[{"name":"","type":"uint8","internalType":"ExchangeTypes.MsgType"}],"stateMutability":"view"},{"type":"function","name":"MsgType_IncreasePositionMargin","inputs":[],"outputs":[{"name":"","type":"uint8","internalType":"ExchangeTypes.MsgType"}],"stateMutability":"view"},{"type":"function","name":"MsgType_SubaccountTransfer","inputs":[],"outputs":[{"name":"","type":"uint8","internalType":"ExchangeTypes.MsgType"}],"stateMutability":"view"},{"type":"function","name":"MsgType_Unknown","inputs":[],"outputs":[{"name":"","type":"uint8","internalType":"ExchangeTypes.MsgType"}],"stateMutability":"view"},{"type":"function","name":"MsgType_Withdraw","inputs":[],"outputs":[{"name":"","type":"uint8","internalType":"ExchangeTypes.MsgType"}],"stateMutability":"view"}],"bytecode":{"object":"0x61042d61004d600b8282823980515f1a6073146041577f4e487b71000000000000000000000000000000000000000000000000000000005f525f60045260245ffd5b305f52607381538281f3fe730000000000000000000000000000000000000000301460806040526004361061011f575f3560e01c80635b6c1d80116100ab578063b414e6fb1161007a578063b414e6fb146102a9578063ddc19572146102c7578063f145f45c146102e5578063f43f094e14610303578063f4c35f02146103215761011f565b80635b6c1d8014610231578063a0cf86341461024f578063ac8860391461026d578063b16bf2e51461028b5761011f565b806332eadd41116100f257806332eadd411461019b57806339ecc2be146101b95780633eb6ba27146101d75780634e5c3e21146101f55780634f78a60e146102135761011f565b80630a778e0514610123578063122e943d146101415780632cad50f21461015f57806331ff02251461017d575b5f5ffd5b61012b61033f565b60405161013891906103de565b60405180910390f35b610149610344565b60405161015691906103de565b60405180910390f35b610167610349565b60405161017491906103de565b60405180910390f35b61018561034e565b60405161019291906103de565b60405180910390f35b6101a3610353565b6040516101b091906103de565b60405180910390f35b6101c1610358565b6040516101ce91906103de565b60405180910390f35b6101df61035d565b6040516101ec91906103de565b60405180910390f35b6101fd610362565b60405161020a91906103de565b60405180910390f35b61021b610367565b60405161022891906103de565b60405180910390f35b61023961036c565b60405161024691906103de565b60405180910390f35b610257610371565b60405161026491906103de565b60405180910390f35b610275610376565b60405161028291906103de565b60405180910390f35b61029361037b565b6040516102a091906103de565b60405180910390f35b6102b1610380565b6040516102be91906103de565b60405180910390f35b6102cf610385565b6040516102dc91906103de565b60405180910390f35b6102ed61038a565b6040516102fa91906103de565b60405180910390f35b61030b61038f565b60405161031891906103de565b60405180910390f35b610329610394565b60405161033691906103de565b60405180910390f35b601181565b600581565b600381565b600181565b600d81565b600281565b600881565b600c81565b600e81565b600681565b600981565b600481565b601081565b600f81565b600a81565b600781565b600b81565b601281565b5f60ff82169050919050565b5f819050919050565b5f6103c86103c36103be84610399565b6103a5565b610399565b9050919050565b6103d8816103ae565b82525050565b5f6020820190506103f15f8301846103cf565b9291505056fea264697066735822122009aa909cbd801cb7b9016bd122eb29b7a3a5e59e10a830ab802e9149e4fc098e64736f6c634300081e0033","linkReferences":{}},"methodIdentifiers":{"MsgType_BatchCancelDerivativeOrders()":"4e5c3e21","MsgType_BatchCancelSpotOrders()":"0a778e05","MsgType_BatchCreateDerivativeLimitOrders()":"a0cf8634","MsgType_BatchCreateSpotLimitOrders()":"4f78a60e","MsgType_BatchUpdateOrders()":"f145f45c","MsgType_CancelDerivativeOrder()":"f43f094e","MsgType_CancelSpotOrder()":"b16bf2e5","MsgType_CreateDerivativeLimitOrder()":"3eb6ba27","MsgType_CreateDerivativeMarketOrder()":"ddc19572","MsgType_CreateSpotLimitOrder()":"32eadd41","MsgType_CreateSpotMarketOrder()":"b414e6fb","MsgType_DecreasePositionMargin()":"5b6c1d80","MsgType_Deposit()":"31ff0225","MsgType_ExternalTransfer()":"ac886039","MsgType_IncreasePositionMargin()":"122e943d","MsgType_SubaccountTransfer()":"2cad50f2","MsgType_Unknown()":"f4c35f02","MsgType_Withdraw()":"39ecc2be"},"id":3}